{
  "contractName": "Project",
  "abi": [
    {
      "constant": true,
      "inputs": [],
      "name": "implementer",
      "outputs": [
        {
          "name": "",
          "type": "address"
        }
      ],
      "payable": false,
      "stateMutability": "view",
      "type": "function"
    },
    {
      "constant": true,
      "inputs": [],
      "name": "value",
      "outputs": [
        {
          "name": "",
          "type": "uint8"
        }
      ],
      "payable": false,
      "stateMutability": "view",
      "type": "function"
    },
    {
      "constant": true,
      "inputs": [],
      "name": "finishTime",
      "outputs": [
        {
          "name": "",
          "type": "uint32"
        }
      ],
      "payable": false,
      "stateMutability": "view",
      "type": "function"
    },
    {
      "constant": true,
      "inputs": [],
      "name": "company",
      "outputs": [
        {
          "name": "",
          "type": "address"
        }
      ],
      "payable": false,
      "stateMutability": "view",
      "type": "function"
    },
    {
      "inputs": [
        {
          "name": "_company",
          "type": "address"
        },
        {
          "name": "_value",
          "type": "uint8"
        },
        {
          "name": "_finishTime",
          "type": "uint32"
        }
      ],
      "payable": false,
      "stateMutability": "nonpayable",
      "type": "constructor"
    },
    {
      "payable": true,
      "stateMutability": "payable",
      "type": "fallback"
    },
    {
      "constant": false,
      "inputs": [],
      "name": "recieveFunds",
      "outputs": [],
      "payable": true,
      "stateMutability": "payable",
      "type": "function"
    },
    {
      "constant": true,
      "inputs": [],
      "name": "showETHFunds",
      "outputs": [
        {
          "name": "",
          "type": "uint256"
        }
      ],
      "payable": false,
      "stateMutability": "view",
      "type": "function"
    },
    {
      "constant": false,
      "inputs": [
        {
          "name": "_desiredAmount",
          "type": "uint256"
        }
      ],
      "name": "withdrawDAI",
      "outputs": [],
      "payable": false,
      "stateMutability": "nonpayable",
      "type": "function"
    },
    {
      "constant": true,
      "inputs": [],
      "name": "showDAIFunds",
      "outputs": [
        {
          "name": "",
          "type": "uint256"
        }
      ],
      "payable": false,
      "stateMutability": "view",
      "type": "function"
    }
  ],
  "bytecode": "0x608060405234801561001057600080fd5b506040516107e93803806107e98339818101604052606081101561003357600080fd5b8101908080519060200190929190805190602001909291908051906020019092919050505033600260006101000a81548173ffffffffffffffffffffffffffffffffffffffff021916908373ffffffffffffffffffffffffffffffffffffffff16021790555073c4375b7de8af5a38a93548eb8453a498222c4ff26000806101000a81548173ffffffffffffffffffffffffffffffffffffffff021916908373ffffffffffffffffffffffffffffffffffffffff16021790555082600160006101000a81548173ffffffffffffffffffffffffffffffffffffffff021916908373ffffffffffffffffffffffffffffffffffffffff16021790555081600160146101000a81548160ff021916908360ff16021790555080600160156101000a81548163ffffffff021916908363ffffffff16021790555050505061066d8061017c6000396000f3fe60806040526004361061007b5760003560e01c80636904c94d1161004e5780636904c94d146101675780639add7438146101be578063baba4811146101f9578063e2c3b667146102035761007b565b80630c67edb81461007d5780630fc302c1146100d45780633fa4f245146100ff5780635958611e14610130575b005b34801561008957600080fd5b5061009261022e565b604051808273ffffffffffffffffffffffffffffffffffffffff1673ffffffffffffffffffffffffffffffffffffffff16815260200191505060405180910390f35b3480156100e057600080fd5b506100e9610254565b6040518082815260200191505060405180910390f35b34801561010b57600080fd5b50610114610334565b604051808260ff1660ff16815260200191505060405180910390f35b34801561013c57600080fd5b50610145610347565b604051808263ffffffff1663ffffffff16815260200191505060405180910390f35b34801561017357600080fd5b5061017c61035d565b604051808273ffffffffffffffffffffffffffffffffffffffff1673ffffffffffffffffffffffffffffffffffffffff16815260200191505060405180910390f35b3480156101ca57600080fd5b506101f7600480360360208110156101e157600080fd5b8101908080359060200190929190505050610383565b005b61020161059b565b005b34801561020f57600080fd5b506102186105e4565b6040518082815260200191505060405180910390f35b600260009054906101000a900473ffffffffffffffffffffffffffffffffffffffff1681565b60008060009054906101000a900473ffffffffffffffffffffffffffffffffffffffff1673ffffffffffffffffffffffffffffffffffffffff166370a08231306040518263ffffffff1660e01b8152600401808273ffffffffffffffffffffffffffffffffffffffff1673ffffffffffffffffffffffffffffffffffffffff16815260200191505060206040518083038186803b1580156102f457600080fd5b505afa158015610308573d6000803e3d6000fd5b505050506040513d602081101561031e57600080fd5b8101908080519060200190929190505050905090565b600160149054906101000a900460ff1681565b600160159054906101000a900463ffffffff1681565b600160009054906101000a900473ffffffffffffffffffffffffffffffffffffffff1681565b806000809054906101000a900473ffffffffffffffffffffffffffffffffffffffff1673ffffffffffffffffffffffffffffffffffffffff166370a08231306040518263ffffffff1660e01b8152600401808273ffffffffffffffffffffffffffffffffffffffff1673ffffffffffffffffffffffffffffffffffffffff16815260200191505060206040518083038186803b15801561042257600080fd5b505afa158015610436573d6000803e3d6000fd5b505050506040513d602081101561044c57600080fd5b810190808051906020019092919050505010156104b4576040517f08c379a00000000000000000000000000000000000000000000000000000000081526004018080602001828103825260358152602001806106046035913960400191505060405180910390fd5b6000809054906101000a900473ffffffffffffffffffffffffffffffffffffffff1673ffffffffffffffffffffffffffffffffffffffff1663a9059cbb30836040518363ffffffff1660e01b8152600401808373ffffffffffffffffffffffffffffffffffffffff1673ffffffffffffffffffffffffffffffffffffffff16815260200182815260200192505050602060405180830381600087803b15801561055c57600080fd5b505af1158015610570573d6000803e3d6000fd5b505050506040513d602081101561058657600080fd5b81019080805190602001909291905050505050565b3073ffffffffffffffffffffffffffffffffffffffff166108fc349081150290604051600060405180830381858888f193505050501580156105e1573d6000803e3d6000fd5b50565b60003073ffffffffffffffffffffffffffffffffffffffff163190509056fe496e73756666696369656e742062616c616e636520696e2066617563657420666f72207769746864726177616c2072657175657374a265627a7a723058208dfc16b8dc7540905ddea29f4df158729d01acffa6f1ab06001df7ea89e6733864736f6c63430005090032",
  "source": "pragma solidity ^0.5.9;\n\ninterface DaiToken {\n    function transfer(address dst, uint256 wad) external returns (bool);\n    function balanceOf(address guy) external view returns (uint256);\n}\n\ncontract Project {\n    DaiToken daitoken;\n    address public company;\n    uint8 public value;\n    uint32 public finishTime;\n    address public implementer;\n\n    constructor(address _company, uint8 _value, uint32 _finishTime) public {\n        implementer = msg.sender;\n        daitoken = DaiToken(0xC4375B7De8af5a38a93548eb8453a498222C4fF2);\n        company = _company;\n        value = _value;\n        finishTime = _finishTime;\n    }\n\n    address[] investors;\n    mapping(address => uint256) investorsParticipation;\n\n    function() external payable {}\n\n    function recieveFunds() external payable {\n        address(this).transfer(msg.value);\n    }\n\n    function showETHFunds() public view returns (uint256) {\n        return address(this).balance;\n    }\n\n    function withdrawDAI(uint256 _desiredAmount) public {\n        // Limit withdrawal amount\n        require(\n            daitoken.balanceOf(address(this)) >= _desiredAmount,\n            'Insufficient balance in faucet for withdrawal request'\n        );\n        // Send the amount to the address that requested it\n        daitoken.transfer(address(this), _desiredAmount);\n    }\n\n    function showDAIFunds() public view returns (uint256) {\n        return daitoken.balanceOf(address(this));\n    }\n}\n",
  "sourcePath": "/Users/Cesar/apps/humcoin/marketplace/packages/eth/contracts/projects/Project.sol",
  "compiler": {
    "name": "solc",
    "version": "0.5.9+commit.e560f70d.Emscripten.clang"
  },
  "schemaVersion": "3.0.20",
  "updatedAt": "2020-01-02T16:44:28.330Z",
  "devdoc": {
    "methods": {}
  },
  "userdoc": {
    "methods": {}
  }
}